:1000000020C03AC039C038C037C04FC035C034C036
:1000100033C032C031C030C02FC02EC02DC0000050
:10002000000037000000000038000000000036002B
:100030000202020202020102040810200102000072
:10004000000011241FBECFE5D2E0DEBFCDBF10E01F
:10005000A0E6B0E0EEE3F3E002C005900D92A23618
:10006000B107D9F710E0A2E6B0E001C01D92AB36AF
:10007000B107E1F757D161C1C3CF8091600061E062
:100080001DD168EE73E080E090E063D08091600065
:1000900060E014D168EE73E080E090E05AD00895FB
:1000A0008091600061E0CBD008951F920F920FB64F
:1000B0000F9211242F933F934F935F936F937F93EE
:1000C0008F939F93AF93BF93209166003091670009
:1000D000409168005091690070916A00DA01C9018D
:1000E0000296A11DB11D672F6A5F6D3730F06D5705
:1000F000DA01C9010396A11DB11D60936A008093C6
:10010000660090936700A0936800B09369008091A7
:10011000620090916300A0916400B0916500019627
:10012000A11DB11D8093620090936300A0936400B1
:10013000B0936500BF91AF919F918F917F916F9127
:100140005F914F913F912F910F900FBE0F901F9095
:1001500018959B01AC017FB7F89480916200909153
:100160006300A0916400B091650062B708B601FE1B
:1001700005C06F3F19F00196A11DB11D7FBFBA2FB9
:10018000A92F982F8827860F911DA11DB11D63E00F
:10019000880F991FAA1FBB1F6A95D1F7BC012EC0FB
:1001A000FFB7F8948091620090916300A091640081
:1001B000B0916500E2B708B601FE05C0EF3F19F047
:1001C0000196A11DB11DFFBFBA2FA92F982F882717
:1001D0008E0F911DA11DB11DE3E0880F991FAA1F6D
:1001E000BB1FEA95D1F7861B970B885E9340C0F240
:1001F000215030404040504068517C4F211531051E
:100200004105510569F6089578948AB582608ABDE2
:100210008AB581608ABD83B7826083BF83B78160FE
:1002200083BF89B7826089BF80B7826080BF80B793
:10023000816080BF329A319A309A379A0895CF936D
:10024000DF93482F50E0CA018A5C9F4FFC01349134
:10025000405D5F4FFA018491882369F190E0880F37
:10026000991FFC01E25EFF4FA591B491FC01EC5D8A
:10027000FF4FC591D491662351F42FB7F8948C9118
:10028000932F909589238C93888189230BC06230AA
:1002900061F42FB7F8948C91932F909589238C93C8
:1002A0008881832B88832FBF06C09FB7F8948C91D9
:1002B000832B8C939FBFDF91CF910895482F50E0FF
:1002C000CA01845C9F4FFC012491CA018A5C9F4F44
:1002D000FC019491405D5F4FFA013491332309F1A1
:1002E000222359F0213019F0223039F403C08AB5A5
:1002F0008F7702C08AB58F7D8ABDE32FF0E0EE0FC5
:10030000FF1FEC5DFF4FA591B4912FB7F8946623C2
:1003100021F48C919095892302C08C91892B8C9328
:100320002FBF0895CF93DF936FDFBADEC0E0D0E038
:0E033000A4DE2097E9F364DEFBCFF894FFCF44
:02033E000100BC
:00000001FF
